:020000040800F2
:1080000000000B2089350108A9310108B1310108B0
:10801000FD31010849320108513201080000000019
:10802000000000000000000000000000E11F010847
:1080300059320108000000003122010849160108E8
:10804000D9350108D9350108D9350108D9350108D4
:10805000D9350108D9350108D9350108D9350108C4
:10806000D9350108D9350108D9350108D9350108B4
:1080700069320108D9350108D93501087D32010876
:10808000D9350108D9350108D9350108D935010894
:10809000D9350108D9350108D935010891320108CF
:1080A000D9350108D9350108D9350108D935010874
:1080B000D9350108D9350108D9350108D935010864
:1080C000D9350108D9350108D9350108D935010854
:1080D000D9350108B5320108D9350108D93501086B
:1080E000D9350108D9350108D9350108D935010834
:1080F000D9350108D9350108D9350108D935010824
:10810000D9350108D9350108D9350108D935010813
:10811000A1320108D9350108C9320108D935010851
:10812000D9350108D9350108D9350108D9350108F3
:10813000D9350108D9350108D9350108D9350108E3
:10814000D9350108D9350108D9350108D9350108D3
:10815000D9350108D9350108D9350108D9350108C3
:10816000D9350108D9350108D9350108D9350108B3
:10817000D9350108D9350108D935010800000000BA
:10818000D9350108D9350108DD320108D935010892
:10819000D9350108D9350108D9350108D935010883
:0C81A000D9350108D9350108D93501088E
:1081C0000348044B834202D0034B03B11847704766
:1081D000A4000020A4000020000000000548064B79
:1081E0001B1AD90F01EBA301491002D0034B03B1B5
:1081F00018477047A4000020A400002000000000E1
:1082000010B5064C237843B9FFF7DAFF044B13B1DE
:108210000448AFF300800123237010BDA4000020A8
:1082200000000000CC4F010808B5044B1BB1044905
:108230000448AFF30080BDE80840CFE7000000002D
:10824000A8000020CC4F010853B94AB9002908BF43
:1082500000281CBF4FF0FF314FF0FF3000F06AB92B
:10826000ADF1080C6DE904CE00F006F8DDF804E08D
:10827000DDE9022304B070472DE9F047089D0E4662
:1082800004460F46002B4AD194468C45B2FA82F23E
:1082900060D942B1C2F12003974020FA03F30CFAEF
:1082A00002FC1F4394404FEA1C4E1FFA8CF6B7FBAA
:1082B000FEF1230C0EFB117743EA074301FB06F0A6
:1082C00098420AD91CEB030301F1FF3780F01581B6
:1082D000984240F21281023963441B1AA4B2B3FBE4
:1082E000FEF00EFB103344EA034400FB06F6A64200
:1082F0000AD91CEB040400F1FF3380F00081A64290
:1083000040F2FD806444023840EA0140A41B002191
:108310001DB1D4400023C5E90043BDE8F0878B427E
:1083200005D90DB1C5E9000100210846F5E7B3FA0A
:1083300083F1002946D1B34202D3824200F2F58094
:10834000841A66EB030201201746002DE5D0C5E92B
:108350000047E2E7002A40F09380A1EB0C034FEACC
:108360001C471FFA8CFE0121B3FBF7F607FB163002
:10837000230C43EA00430EFB06F0984208D91CEB9D
:10838000030306F1FF3802D2984200F2D08046463D
:108390001B1AA4B2B3FBF7F007FB103344EA034403
:1083A0000EFB00FEA64508D91CEB040400F1FF33C8
:1083B00002D2A64500F2B6801846A4EB0E0440EAAD
:1083C0000640A5E7C1F120078B4022FA07FC4CEAE2
:1083D000030C06FA01FE20FA07F426FA07F344EA32
:1083E0000E0400FA01F84FEA1C404FEA1449B3FBAF
:1083F000F0FE1FFA8CF600FB1E3349EA03430EFB26
:1084000006F9994502FA01F20BD91CEB03030EF1B0
:10841000FF3A80F08580994540F28280AEF1020EED
:108420006344A3EB0909A4B2B9FBF0F300FB139971
:1084300044EA094403FB06F6A64208D91CEB0404EF
:1084400003F1FF3068D2A64266D9023B644443EA96
:108450000E40A41BA0FB02E6B4427346B14652D3C1
:108460004FD05DB1B8EB030264EB090404FA07F7DF
:1084700022FA01F31F43CC40C5E9007400214CE708
:10848000C2F1200120FA01F30CFA02FC26FA01F1F4
:10849000964033434FEA1C471FFA8CFEB1FBF7F0BE
:1084A00007FB1016190C41EA064100FB0EF68E423E
:1084B00004FA02F408D91CEB010100F1FF382DD2B7
:1084C0008E422BD902386144891B9BB2B1FBF7F66F
:1084D00007FB161143EA014306FB0EF1994208D946
:1084E0001CEB030306F1FF3814D2994212D9023E65
:1084F00063445B1A46EA004136E73946EDE6184622
:1085000002E7F045ADD2BEEB020366EB0C06013884
:10851000B146A6E74646ECE7034698E74046D3E770
:10852000D6467EE76444023847E708460DE7023E38
:1085300063442DE7704700BF01292DE9F0415BD965
:108540004FF00108C64600244FF0FF35434608E0CF
:10855000A3EB05081C464FF0010E04EB0E039942F5
:1085600010D900EB050CC75C1CF80E60B742EFD3C6
:1085700032D04FF001082546C646444404EB0E03B2
:108580009942EED80127C2F80080BE4600244FF081
:10859000FF363B4607E09F1B1C464FF0010E04EBE5
:1085A0000E03994210D900EB060C10F803801CF85A
:1085B0000EC0E045EFD817D001272646BE463C4402
:1085C00004EB0E039942EED80136681C864201D3B3
:1085D00017603046BDE8F081C6450ABF74440EF10D
:1085E000010E4FF0010EB8E7BE450ABF74440EF10C
:1085F000010E4FF0010ED2E701270026E8E700BF89
:108600002DE9F04F174687B005AA804689463846BF
:1086100019461C46FFF790FF059B029382460246CF
:10862000F918384601F010FF00285FD144F40063C8
:108630000193029BE31A06460546A9EB0401039346
:10864000CAF1010BA9421BD35645334638BF5346E6
:108650009C4223D9581EEA183844424402E00133B0
:108660009C421BD012F801CB10F801EFE645F6D082
:108670009C4213D95D441D44A9424FF00006E3D249
:10868000019908EB090001F00DFF8144A9EB0401F9
:10869000A942D9D2002007B0BDE8F08F56450AF1B3
:1086A000FF336FD205EB0A02424407EB0A00009544
:1086B00002E09E4211D0734610F801CD12F8015D20
:1086C000AC4503F1FF3EF4D0009D013301369E42DC
:1086D00007D8029B039E1D44B4E701369E42009DCD
:1086E000F7D908EB050007B0BDE8F08FA4EB0A034B
:1086F000534538BF534601330193059344F4006357
:108700000025A9EB040100930AF1FF36CAF1010B21
:10871000A94216D3544520D905EB0A024244B819A0
:10872000534602E001339C4217D012F801CB10F8F7
:1087300001EFE645F6D09C420FD95D441D44A942A5
:10874000E8D2009908EB090001F0ACFE8144A9EBE6
:108750000401A9429ED35445DED8BAF1000FC0D01F
:1087600005EB0A00404407EB0A0201E0BB42B8D027
:1087700012F801ED10F801CDE6451346F6D0019B45
:108780001D44C5E75346A1E72DE9F04F9346ADF2EE
:108790001C4D05AA80468A46584619461C46FFF7D6
:1087A000CBFE134681460DF2144243F8044F934228
:1087B000FBD16CB1601E58440BF1FF3206AD12F8CC
:1087C000011FA31A013B5B44824245F82130F6D1D8
:1087D000059B01934A460BEB0301584601F034FE1A
:1087E000002878D144F4006307460546AAEB040E3E
:1087F0000293661EAE4511D308EB050C06AA1CF8C1
:10880000063052F82330C3B11FB1019A9A4288BF93
:10881000A31A1D44AE454FF00007EDD208EB0A0045
:10882000029901F03FFE8244AAEB040EAE45E3D26A
:1088300000200DF21C4DBDE8F08F4F453B4638BF80
:108840004B469E4218D9591EEA1859444244009595
:1088500002E001339E420ED012F8010B11F8015FC5
:108860008542F6D09E42009D06D9C9F101022A44F4
:10887000D5180027BEE7009D4F4509F1FF3380F072
:10888000818005EB090242440BEB09010095CDF80C
:108890000C9002E09F4213D04B4611F8015D12F894
:1088A000010D854203F1FF39F4D0009DDDF80C90F5
:1088B000013301379F4209D8019B1D44E71A99E70C
:1088C00001379F42009DDDF80C90F5D960460DF20E
:1088D0001C4DBDE8F08FA4EB09034B4538BF4B4658
:1088E00001330193059344F400630025AAEB040EC1
:1088F0000093661EAE4509D308EB050006AA835D0A
:1089000052F823306BB11D44AE45F5D208EB0A0096
:10891000009901F0C7FD8244AAEB040EAE45EBD2EC
:1089200086E7B14517D209F1FF3105EB0902594439
:1089300042444B4602E00133B3420CD012F8017BB3
:1089400011F801CFBC45F6D09E4204D9C9F101020D
:108950002A44D518CEE7B9F1000F3FF46AAF05EB12
:10896000090141440BEB090202E05B453FF461AFB2
:1089700012F801CD11F8017DBC451346F5D0019BDD
:108980001D44C1E74B4694E72DE9F0410D460978B7
:1089900090B00446002954D06A78002A00F0828002
:1089A000AB78002B51D0E8782E68002800F0818049
:1089B0002B79002B56D0284600F022FD064640F4C5
:1089C0000071204601F06EFD86425AD8FE2E00F25C
:1089D0008880801B27184022711C684600F07CFDAF
:1089E0007EB16A1E5FFA86FC901912F8013F03F00F
:1089F0003F0340336B44A91A6144904203F8401C82
:108A0000F3D1013CA35D03F03F0340336B4413F803
:108A1000403C1C44A74203D238E04444A74235D32B
:108A200014F806C00CF03F0C0CF140030DEB030CE6
:108A30003246294620461CF8408C01F005FD0028EE
:108A4000EBD1204610B0BDE8F081007842EA014247
:108A5000B8B140EA03439A42214614F8010FF7D116
:108A60004C1EEEE7227862B131BA01E08B421ED093
:108A700042EA0323204614F8012F002AF6D18B4244
:108A800015D00024204610B0BDE8F081BB5DB819B8
:108A9000002BF6D04FF4006101F004FD0744A7421B
:108AA000AFD2EEE710B0BDE8F04100F023B8C41E2D
:108AB000C7E7120442EA0162217842EA032300294F
:108AC000DFD0024601E00029DBD041EA0200B3EB2F
:108AD000002F25464FEA002214F8011FF3D1AC1EE7
:108AE000AFE7014633462A46204610B0BDE8F041C4
:108AF0004AE600BF11F0FF01034600F0030239D03F
:108B00008ABB026810B501EB012E0EEB0E4E8EEA09
:108B10000204A2F1013323EA0203A4F1013222EAA2
:108B20000402134313F0803F0FD150F8044F84EA3E
:108B30000E0CA4F10133ACF1013223EA040322EA62
:108B40000C02134313F0803FEFD0037823B936E0D3
:108B500010F8013F002B32D09942F9D110BD8A4262
:108B600028D09A0729D01A7818460133002AF6D15E
:108B700010467047CAB90268A2F1013323EA020322
:108B800013F0803F08D150F8042FA2F1013323EAFB
:108B9000020313F0803FF6D003785BB110F8013F79
:108BA000002BFBD17047990705D0184613F8012B0D
:108BB000002AF8D170471846DDE71846A1E71846A5
:108BC00010BD00BF10B51C4C002924689AB02DDBE5
:108BD000009004904FF40270ADF80C004FF00000CC
:108BE000199013D001394FF6FF7002910591ADF83D
:108BF0000E006946204600F03FF9421C01DA8B2343
:108C00002360009B00221A701AB010BD4FF6FF704F
:108C100002910591ADF80E006946204600F02CF94E
:108C2000431C01DA8B2323601AB010BD8B23236011
:108C30004FF0FF30F8E700BF0000002030B51446C9
:108C4000002C9BB005462EDB1A464FF40273ADF89C
:108C50000C304FF0000300910491199313D04FF69C
:108C6000FF73013CADF80E3069461E9B02940594DB
:108C700000F002F9421C01DA8B232B60009B0022DA
:108C80001A701BB030BD4FF6FF73ADF80E30694659
:108C90001E9B0294059400F0EFF8431C01DA8B232D
:108CA0002B601BB030BD8B2303604FF0FF30F8E723
:108CB0002DE9F0478F681D46AF420B680C461646FB
:108CC00036D8B1F90CC01CF4906F0ED13D46184651
:108CD00031462A4600F02EFEA368DF1B2368A760FA
:108CE0002B4400202360BDE8F0874A69096902EB44
:108CF00042025F1A02EBD2726B1C52103B44934249
:108D000092BF914699461A461CF4806F804611D056
:108D1000114600F031FD824600B321693A4600F069
:108D200061FFA38923F4906343F08003A38105E0EE
:108D30002F46CCE701F024F8824658B10AEB07032E
:108D4000A9EB0707A760C4F810A0C4F8149023602B
:108D50002F46BCE72169404600F08EFDA3890C2216
:108D600043F04003C8F800204FF0FF30A381BAE77A
:108D70002DE9F04F9368176883B09246002B74D0AA
:108D80004FF0000B8B680A6881460C465D4645E053
:108D9000B4F90C3013F4906F2CD0D4E90401161AF6
:108DA00001EB410202EBD272711C52102944914234
:108DB00092BF904688460A465B0539D5114648461B
:108DC00000F0DAFC019000283DD03246216900F025
:108DD00009FFA289019B22F4906242F08002A281E5
:108DE0009819A8EB0606A660C4F8148023612060D9
:108DF000A8462E463246594600F09CFDDAF8081087
:108E0000A3682268A3EB08033244491BA3602260D5
:108E1000CAF8081049B3D7E900B508379846104694
:108E2000002DF8D09D421E46B2D2A8462E46E1E75C
:108E30000146484600F0A4FF03460028D0D121692E
:108E4000484600F019FDA3890C2243F04003C9F8FD
:108E500000204FF0FF30A38100220023CAF8082031
:108E6000CAF8043003B0BDE8F08F00200023CAF830
:108E7000043003B0BDE8F08F2DE9F04F1C468B891C
:108E80001D069DB088468146934603D50B69002B8D
:108E900000F0F1800023099343F22003ADF829305C
:108EA0009BF800307D4D03940126002B73D0DA46E9
:108EB00003E01AF8013F002B75D0252BF9D1BAEB4E
:108EC0000B0473D19AF80020002A64D000234FF0DD
:108ED000FF32CDE905230AF1010A049307938DF8C7
:108EE00053301A9305E0049A06FA03F31A430492E6
:108EF000A2465446052214F8011B284600F0C0FD86
:108F0000A346431B0028EED1049BD80644BF202271
:108F10008DF8532019079AF8001044BF2B228DF8C2
:108F200053202A2950D1039A116804320029039250
:108F30007CDB07919AF801102E295BD0584C032254
:108F4000204600F09DFD38B1049B001B402282406A
:108F500013430BF1010B04931BF8011B51488DF8CF
:108F60002810062200F08CFD002865D04E4B002B07
:108F700055D003AA00924D4B424604A94846AFF390
:108F8000008007467A1C06D0099B3B4409939BF856
:108F90000030002B8BD1B8F80C305B067AD40998DE
:108FA0001DB0BDE8F08FBAEB0B04F4D023465A464F
:108FB00041464846FFF77CFE0130ECD0099B9AF809
:108FC0000020234409937FE7A1F13002092A88BFDA
:108FD000D346B1D8079B00E00134217803EB83032B
:108FE00002EB4303A1F13002092AF5D92E29079398
:108FF000A346A3D19BF801102A2927D1039B9BF8F4
:1090000002101A6805920433002A0BF10200039340
:10901000B8BF4FF0FF338346B8BF05938EE7039B7D
:10902000073323F0070308330393ADE7494243F0C6
:109030000203079104937DE703AA00921B4B42466B
:1090400004A9484600F060FF07469BE7A1F1300203
:109050000023092A05930BF1010B3FF66FAF1BF8B4
:10906000011F03EB830302EB4303A1F13002092A42
:10907000F5D9059362E7402100F07EFBC8F80000B7
:10908000C8F8100018B14023C8F8143002E70C23C8
:10909000C9F800304FF0FF3082E700BF8C60010854
:1090A000946001089860010800000000B18C00087D
:1090B00070B50F4B0F4DAB42A3EB050607D0B610B2
:1090C000002455F8043B01349847A642F9D80BF028
:1090D0007DFF094D094B5E1BAB424FEAA60606D049
:1090E000002455F8043B01349847A642F9D870BDD6
:1090F000D0600108D0600108D0600108D460010888
:10910000036A2DE9F041846880460E46002B3BD06F
:10911000A3891B0717D52369ABB1013EA36816F8D5
:10912000015F013BA360EDB1002B07DAA7699F4205
:1091300022462946404610DC0A2D0ED023685A1CD0
:1091400022601D70EAE72146404600F0E9FC002855
:10915000E3D04FF0FF30BDE8F08101F0C7F90130F6
:10916000DCD1F6E7002B09DA22460A21404601F05D
:10917000BDF90130EDD00A20BDE8F08123680A2254
:10918000591C21601A70F6E700F0F4F8C0E700BF40
:10919000024B01461868FFF7B3BF00BF0000002074
:1091A00000207047024A0349034800F043BC00BF57
:1091B00050000020A1960008040000200C4B4168DC
:1091C000994210B5044601D000F06AFAA168094B33
:1091D000994202D0204600F063FAE168064B9942BA
:1091E00004D02046BDE8104000F05ABA10BD00BFC0
:1091F000C0000020280100209001002000207047BE
:109200002DE9F8432A4C2B49DFF8BC90DFF8BC80ED
:10921000294FC4F83811002504230822294604F1F7
:109220005C00264EE360C4E90055C4E90455A5601E
:109230006566A56100F050F9214B63670822294655
:1092400004F1C400C4E90849C4E90A87C4E91A550D
:10925000C4E91E552567C4F8CC50C4F88050266375
:1092600000F03AF9174BC4F8DC30294604F16803E2
:10927000082204F59670C4F88830C4E92398C4E93C
:109280002576C4E93455C4E93855C4F8D850C4F833
:109290003451C4F8E85000F01FF904F1D003C4E9D8
:1092A0003D98C4E93F76C4F8F030BDE8F88300BFCC
:1092B000C0000020A591000819A600083DA60008DE
:1092C0000900010012000200B1A50008D9A500089C
:1092D000F8B5254BD3F838310646002B3CD0234F48
:1092E000D7E90134013B04D51DE05A1C04F16804A0
:1092F00019D0B4F90C50013B002DF6D11C4BE360A2
:10930000C4E90155C4E9045565662560A5610822D4
:10931000294604F15C0000F0DFF8C4E90D55C4E90A
:1093200012552046F8BD3D680DB12F46D8E74FF4E1
:10933000D671304600F020FA044680B10423C0E91B
:1093400000530C302946A0604FF4D072254600F03F
:10935000C3F83C602F46C3E7FFF752FFBFE70C237B
:1093600038603360DDE700BFC000002050000020FF
:109370000100FFFF036A03B17047044B044AD3F8AE
:1093800038310262002BF7D13AE700BFC00000205D
:10939000BD910008704700BF704700BF024A0349F3
:1093A000002000F047BB00BF50000020A191000842
:1093B000024A0349002000F03DBB00BF50000020DE
:1093C000FD91000800000000000000000000000007
:1093D000000000000000000000000000000000008D
:1093E000000000000000000000000000000000007D
:1093F000000000000000000000000000000000006D
:1094000030B490F800F020F007016FF0000C10F07D
:10941000070491F820F040F048804FF000046FF00E
:109420000700D1E9002391F840F000F1080082FA2A
:109430004CF2A4FA8CF283FA4CF3A2FA8CF34BBBF5
:10944000D1E9022382FA4CF200F10800A4FA8CF26E
:1094500083FA4CF3A2FA8CF3E3B9D1E9042382FA3C
:109460004CF200F10800A4FA8CF283FA4CF3A2FA51
:109470008CF37BB9D1E9062301F1200182FA4CF289
:1094800000F10800A4FA8CF283FA4CF3A2FA8CF3F0
:10949000002BC6D0002A04BF04301A4612BAB2FA12
:1094A00082F200EBD20030BC7047D1E9002304F017
:1094B0000305C4F100004FEAC50514F0040F91F84C
:1094C00040F00CFA05F562EA05021CBF63EA0503E9
:1094D00062464FF00004AAE7830730B547D0541E18
:1094E000002A3ED0CAB2034601E0013C39D303F85A
:1094F000012B9D07F9D1032C2CD9CDB205EB052505
:109500000F2C05EB054535D9A4F1100222F00F0C04
:1095100003F1100EE6444FEA121C1A46C2E9005548
:10952000C2E9025510327245F8D10CF1010214F073
:109530000C0F03EB021204F00F0C13D0ACF1040378
:1095400023F003030433134442F8045B9342FBD13A
:109550000CF003042CB1C9B21C4403F8011BA34254
:10956000FBD130BD64461346002CF4D1F9E7034625
:109570001446C0E71A46A446E0E700BFB1F90C3034
:109580002DE9F0411E070C4680463DD44A68002A6A
:1095900056DDE56A002D34D00022D8F80060C8F806
:1095A000002013F48052216A57D101234046A84776
:1095B000451C024666D0B4F90C30E56A216A5807AA
:1095C00005D56368D21A636B0BB1236CD21A0023E2
:1095D0004046A847431C42D00023636023692360B0
:1095E000A389DF0400D56065616BC8F8006041B1F4
:1095F00004F14403994202D0404600F03DF90023B3
:1096000063630020BDE8F0810E69002EF9D09B074E
:109610000D6808BF4B690E6018BF0023AD1B8B603F
:109620000BE02B463246216AA76A4046B847B0F1A4
:10963000000CA5EB0C05664406DD002DF1DCE0E72F
:109640000A6C002AA5DCDCE7B4F90C3043F04003D7
:10965000A3814FF0FF30BDE8F081626DAFE7D8F82D
:109660000010B4F90C301D29F0D80C4ACA40D507B7
:10967000ECD52269226000226260DA04B4D50029A8
:10968000B1D0B1E7D8F80030002B94D01D2B01D019
:10969000162BD9D1C8F80060B3E700BF0100402005
:1096A0000B69B3B110B5044682B008B1036A5BB16F
:1096B000B1F90C3013B9002002B010BD204602B041
:1096C000BDE81040FFF75ABF0191FFF753FE019923
:1096D000EEE70020704700BFB8B138B50D4A036906
:1096E000156804462BB10DB12B6A53B1B4F90C3097
:1096F0000BB9002038BD21462846BDE83840FFF7A9
:109700003DBF2846FFF736FEF0E7034A0349044809
:1097100000F090B90000002050000020A196000841
:1097200004000020014B1868704700BF00000020B3
:1097300070B5104E336805460C46B3B12146284635
:1097400000F024FF431C0CD0C41C24F00304A042EE
:1097500005D0211A284600F019FF013001D020461B
:1097600070BD4FF0FF34204670BD194600F00EFF6B
:109770003060E3E7FC0100202DE9F843CD1C25F023
:10978000030508350C2D38BF0C25002D064618DBC7
:10979000A94216D8DFF8DC8000F0F8FCD8F80420E5
:1097A000A2B1144603E0636822467BB11C462368DD
:1097B0005B1BF8D40B2B1FD89442636854D05360C2
:1097C0000CE00C2333600020BDE8F88329463046C6
:1097D000FFF7AEFF431C044619D00560304600F089
:1097E000D7FC04F10B00231D20F00700C21A1CBF98
:1097F0001B1AA350BDE8F88361199442256014BF79
:109800005160C8F80410635163684B60E6E7D8F80C
:1098100004701FB33C467F68002FFBD12368394694
:10982000304604EB030900F0B1FE814516D12368F0
:10983000ED1A29463046FFF77BFF01300ED0236832
:10984000D8F804202B442360536883B1A34203D08B
:109850001A465B689C42FBD10023B0E70C233360BF
:10986000304600F095FCAEE7C8F80430B6E7C8F81B
:109870000470B3E7FC010020002950D038B551F83E
:10988000043C0C1F002BB8BFE418054600F07EFC1A
:10989000274A13682BB1A3420CD921686018834270
:1098A0002CD0636028461460BDE8384000F070BCDE
:1098B000A3420FD81A465B68002BF9D111685018E3
:1098C000844217D02CD3636054602846BDE83840EA
:1098D00000F05EBC11685018A04214D020D8216856
:1098E00060188342EFD118685B680844C4E900033C
:1098F0005460EAE723680B441360E6E718685B6886
:1099000008442060CDE7206801445018834211606C
:10991000DBD1D3E900040144C2E90014D5E7704764
:109920000C232B602846BDE8384000F031BC00BF56
:109930000002002088420ED98B1883420BD900EB1D
:10994000020C002A6ED0624613F801CD02F801CD58
:109950009942F9D170470F2A0FD8034602F1FF3C14
:10996000002A5FD00CF1010C013B8C4411F8012B53
:1099700003F8012F6145F9D1704740EA01039B07C5
:1099800051D1A2F1100370B501F1200C23F00F05A5
:1099900001F1100E00F11004AC441B095EF8105CDC
:1099A00044F8105C5EF80C5C44F80C5C5EF8085CF3
:1099B00044F8085C5EF8045C44F8045C0EF1100E98
:1099C000E64504F11004E9D1013312F00C0F01EB6C
:1099D000031102F00F0400EB031328D0043C24F021
:1099E00003064FEA940C1E441C1F8E465EF8045B6F
:1099F00044F8045FB442F9D10CF1010402F003020F
:109A000003EB840301EB840102F1FF3C4AB10CF14A
:109A1000010C013B8C4411F8012B03F8012F614527
:109A2000F9D170BD704702F1FF3C03469AE7224628
:109A3000EAE700BF2DE9F8430746884616464FF08F
:109A40000009D6E90154013D10D4A389012B08D99E
:109A5000B4F90E3001332146384602D0C04749EAF6
:109A60000009013D6B1C04F16804EED13668002E3C
:109A7000E7D14846BDE8F883000000000000000080
:109A800001F0FF01102A2BDB10F0070F08D010F8AF
:109A9000013B013A8B422DD010F0070F42B3F6D1B3
:109AA000F0B441EA012141EA014122F007047FF0CC
:109AB00000070023F0E80256083C85EA010586EA23
:109AC000010685FA47F5A3FA87F586FA47F6A5FA5F
:109AD00087F68EB9EED1F0BC01F0FF0102F007026B
:109AE00032B110F8013B013A83EA010313B1F8D116
:109AF0000020704701387047002D06BF35460338F7
:109B0000073815F0010F07D1013015F4807F02BF2F
:109B1000013015F4C03F0130F0BC0138704700BF80
:109B200038B52F4B1B6805460C4613B11A6A002A3C
:109B30004BD0B4F90C3018071CD5226922B313F0AE
:109B4000010107D0616900204942A060A1613AB1DA
:109B5000002038BD980758BF6169A160002AF7D17D
:109B6000190658BF1046F4D543F04003A3814FF0C7
:109B7000FF3038BDD9062CD55A0712D4226943F0DC
:109B80000803A381002ADAD103F42071B1F5007F24
:109B9000D5D02146284600F043FBB4F90C302269A9
:109BA000CDE7616B51B104F14402914204D02846E3
:109BB000FFF762FEB4F90C300022626322690021D3
:109BC000C4E9002123F02403D9E71846FFF7D2FBAC
:109BD000AFE7092243F040032A60A381C7E700BF33
:109BE00000000020844641EA000313F003036DD116
:109BF000403A41D351F8043B40F8043B51F8043B50
:109C000040F8043B51F8043B40F8043B51F8043B56
:109C100040F8043B51F8043B40F8043B51F8043B46
:109C200040F8043B51F8043B40F8043B51F8043B36
:109C300040F8043B51F8043B40F8043B51F8043B26
:109C400040F8043B51F8043B40F8043B51F8043B16
:109C500040F8043B51F8043B40F8043B51F8043B06
:109C600040F8043B51F8043B40F8043B51F8043BF6
:109C700040F8043B403ABDD2303211D351F8043B96
:109C800040F8043B51F8043B40F8043B51F8043BD6
:109C900040F8043B51F8043B40F8043B103AEDD245
:109CA0000C3205D351F8043B40F8043B043AF9D296
:109CB000043208D0D2071CBF11F8013B00F8013B69
:109CC00001D30B8803806046704700BF082A13D376
:109CD0008B078DD010F003038AD0C3F10403D21A8E
:109CE000DB071CBF11F8013B00F8013B80D331F8C2
:109CF000023B20F8023B7BE7043AD9D3013A11F842
:109D0000013B00F8013BF9D20B7803704B784370AC
:109D10008B7883706046704740EA01039B0710B55B
:109D200001D1032A17D8844601F1FF3E07E01EF84F
:109D3000011F03F8011B541E29B19C4622466346AD
:109D4000002AF4D110BD9444002CFBD003F8011B71
:109D50006345FBD110BD8E468446DEF80040A4F179
:109D6000013323EA040313F0803F71460EF1040E21
:109D7000DAD1043A032A4CF8044BEED87146D3E703
:109D80002DE9F041144641B30AB306460D4600F0F2
:109D900059FC8442074602D8B4EB500F13D8214631
:109DA0003046FFF7E9FC804650B1BC4222462946C6
:109DB00028BF3A46FFF716FF29463046FFF75CFDFD
:109DC0004046BDE8F081A8464046BDE8F081A04687
:109DD000FFF752FD4046BDE8F081BDE8F041114675
:109DE000FFF7CABC2DE9F84F92461F460A698B68F7
:109DF000DDF828909A42B8BF1A46CAF8002091F8B8
:109E000043300C46064613B10132CAF800202268DE
:109E100091065FD5DAF800300233CAF800302268C4
:109E200012F0060F11461DD1E1689942D8BF1146C4
:109E300018DD4FF0000804F1190B05E0E568DAF8C9
:109E40000030ED1A45450CDD01235A4639463046AF
:109E5000C847013008F10108F0D14FF0FF30BDE8EC
:109E6000F88F216894F84330003B18BF01238A061D
:109E70000AD5E1185A1C302081F84300224494F896
:109E8000451082F84310023304F14302394630464C
:109E9000C8470130E1D02368DAF80050216903F0A7
:109EA0000603042BD4E902201BD08A4220DD4FF0A8
:109EB0000008521A90441A34002501E0454517DA8B
:109EC0000123224639463046C847013005F10105D5
:109ED000F4D1C2E712F0060F0DD0003B18BF0123EA
:109EE000D2E7401B8A4220EAE078E2DC0028E2DC8C
:109EF0000020BDE8F88FE168DAF800309942D8BF59
:109F0000114696DCAEE700BF2DE9F047174684B056
:109F10000A7E0C9D0C460646984601F1430C002A29
:109F200035D0A2F15803D9B2202969D8202B67D89F
:109F3000DFE813F0E6006600660066006600660073
:109F400066006600660066006600AC007000660091
:109F500066006600660070006600660066006600C7
:109F600021008300C60066006600B600660083001C
:109F700066006600EC002B6822686169181D286085
:109F800010061B6802D4520600F1E080196000231D
:109F9000E1462361CDF800803B4603AA21463046C6
:109FA000FFF720FF013020D023694A46394630466A
:109FB000C047013019D02368E068DDF80C909B079A
:109FC00018D5484516DD002504F1190A04E0E068BB
:109FD000A0EB0903AB420DDD012352463946304662
:109FE000C047013005F10105F1D14FF0FF3004B059
:109FF000BDE8F0874845B8BF484604B0BDE8F087E3
:10A0000084F84220012004F142090023206184F8F1
:10A010004330BFE72A682368111D1806296002D45F
:10A02000590600F195801068014600286268C0F268
:10A03000938054484FF00A0E15E020682B6810F00A
:10A04000800F53F8041B02D1400648BF89B26F2A23
:10A050004C482B6014BF4FF00A0E4FF0080E00233F
:10A06000626884F84330002AA26051DB236823F041
:10A070000403236000294BD1002A7BD1E146BEF1C5
:10A08000080F56D0ACEB0903236183E72B681A68ED
:10A0900004332B6004F1420984F842200120B4E724
:10A0A0002B686268191D2960D3F80090002148468A
:10A0B000FFF7E6FC002863D0A0EB09006060A4E78E
:10A0C000236843F02003236078222F4884F845203A
:10A0D0002A6813F0800F52F8041B03D113F0400FCD
:10A0E00018BF89B22A60DA0744BF43F02003236017
:10A0F00019B9236823F0200323604FF0100EAEE758
:10A10000582384F845301F482368E1E72368DBE7DC
:10A110007546E146B1FBF5F305FB131A0A46AA4260
:10A1200010F80A1009F8011D1946F3D2BEF1080F04
:10A13000A8D12368DD07A5D5626823699A42A1DC0E
:10A14000302309F8013C09F1FF399BE719801EE72C
:10A15000B2F90010084668E72D20002AA26084F8B2
:10A16000430002DB23F0040323600A25054849422B
:10A17000AE46CEE7037884F8423004F142097EE728
:10A18000606842E7A0600108B4600108704700BF42
:10A19000704700BF002A3ED030B5844604460843CD
:10A1A00080070B462ED1032A07D82BE0043A25D08E
:10A1B0001EF0803F22D1032A22D92068194653F885
:10A1C000045BA0F1013EA842A4462EEA000E04F171
:10A1D0000404EBD09CF800000C7884421DD1E646C4
:10A1E00068B11EF8010F11F8014FA2EB0E03A04257
:10A1F00003F1FF3311D11CEB0303F1D1002030BD7B
:10A20000A44619469CF800000C78A04205D1012A0A
:10A21000F4D0E646E4E710467047001B30BD00BFAF
:10A2200070B5B1F90C300C46990796B007D504F11A
:10A2300047030122C4E90432236016B070BDB4F9AB
:10A240000E100029054629DB6A4600F02BFA00288B
:10A2500022DB4FF480612846019EFFF78DFA88B318
:10A26000A389206043F0800306F47046A381B6F50D
:10A27000005F4FF48063C4E90403DED1B4F90E102B
:10A28000284600F021F90028D7D0A38923F0030342
:10A2900043F00103A381D0E7B4F90C3013F0800F31
:10A2A00014BF40264FF4806631462846FFF764FA13
:10A2B00040B1A389206043F08003C4E90406A38170
:10A2C00016B070BDB4F90C309A05B6D423F0030370
:10A2D00004F1470243F002030121C4E90421A381F0
:10A2E0002260AAE770B50C46B1F90E10002996B0AD
:10A2F00015461E460FDB6A4600F0D4F900280ADB3B
:10A30000019B03F47043A3F50053B3FA83F34FF4B6
:10A3100080625B0908E0A28912F0800F4FF0000311
:10A3200014BF40224FF48062002033602A6016B0D0
:10A3300070BD00BF08B410B5002A9DB0044636DBDE
:10A340004FF40273ADF814304FF000031B930291E9
:10A35000069120AB17D0013A4FF6FF710492079295
:10A36000ADF816101F9A019302A9FEF785FD421C55
:10A3700001DA8B232360029B00221A701DB0BDE816
:10A38000104001B070474FF6FF7104920792ADF88C
:10A3900016101F9A019302A9FEF76EFD431C01DA05
:10A3A0008B2323601DB0BDE8104001B070478B23A4
:10A3B00003604FF0FF30F5E70CB410B5214B0029D6
:10A3C0001C689CB038DB4FF000034FF402721B9303
:10A3D000ADF81420029006901FAB18D001394FF64B
:10A3E000FF7204910791ADF8162002A91E9A0193FD
:10A3F0002046FEF741FD421C01DA8B232360029BBD
:10A4000000221A701CB0BDE8104002B070474FF631
:10A41000FF7204910791ADF8162002A91E9A0193CC
:10A420002046FEF729FD431C01DA8B2323601CB074
:10A43000BDE8104002B070478B2323604FF0FF301F
:10A44000F5E700BF00000020032A30B415D941EA27
:10A450000004A40784460B4604D0541E0FE0043ABF
:10A46000032A08D91946604653F8044B5CF8045B8C
:10A47000A542F4D0F1E760461946541E7AB1431E56
:10A480000139021901E09A4209D013F8010F11F8BD
:10A4900001CF6045F7D0A0EB0C0030BC7047002026
:10A4A00030BC704771B1034600EB010C01E063451D
:10A4B00006D01A46013311780029F8D1101A7047D6
:10A4C000181A70470846704738B5074D00220446F1
:10A4D00008462A6009F03FF8431C00D038BD2B68BD
:10A4E000002BFBD0236038BD04020020F8B50D46D8
:10A4F0001446064610B1036A002B37D0A389A2691F
:10A50000A2601A0719D52369BBB122686169D31A01
:10A51000EDB299422F4620DD0133A1680139A160D7
:10A52000511C2160157062699A420DD0A389DB0726
:10A5300001D50A2D08D03846F8BD21463046FFF730
:10A54000EFFA38B92369E0E721463046FFF7A8F86B
:10A550000028F0D04FF0FF37EDE721463046FFF7F7
:10A560009FF80028F6D122680123D6E7FEF702FF04
:10A57000C4E700BF10B4044C03460A4620685DF8E7
:10A58000044B1946FFF7B2BF0000002038B5074D55
:10A590000022044608462A6008F052FF431C00D0FF
:10A5A00038BD2B68002BFBD0236038BD040200208F
:10A5B00010B50C46B1F90E1000F05EF8002803DB70
:10A5C000636D0344636510BDA38923F48053A381A5
:10A5D00010BD00BF002070472DE9F0410C46B1F9D5
:10A5E0000C101F46CB05054616460BD421F48051AE
:10A5F000A1813B46B4F90E1032462846BDE8F04131
:10A6000000F07CB8B4F90E100223002200F060F8CC
:10A61000B4F90C10EAE700BF10B50C46B1F90E1002
:10A6200000F056F8B4F90C30421C0EBF23F48053EE
:10A6300043F480536065A38110BD00BFB1F90E10D3
:10A6400000F008B851F8043C181F002BBCBF0B5891
:10A65000C018704738B5074D0022044608462A60E6
:10A6600008F05DFF431C00D038BD2B68002BFBD0E9
:10A67000236038BD0402002038B50C46084D8446DE
:10A68000114620461A4600232B60644608F00EFF50
:10A69000431C00D038BD2B68002BFBD0236038BD95
:10A6A0000402002070B50C46084D034600262046E3
:10A6B00011461C462E6008F03EFF431C00D070BDC2
:10A6C0002B68002BFBD0236070BD00BF040200206C
:10A6D00038B50C46084D8446114620461A460023DC
:10A6E0002B60644608F042FF431C00D038BD2B6845
:10A6F000002BFBD0236038BD0402002038B50C4687
:10A70000084D8446114620461A4600232B606446B5
:10A7100008F0E9FE431C00D038BD2B68002BFBD0AD
:10A72000236038BD0402002080B400AF074BD3F88B
:10A730008830064A43F47003C2F88830034B044A59
:10A740009A6000BFBD465DF8047B704700ED00E0F5
:10A750000080000880B582B000AF78607B68002B75
:10A7600001D1012341E07B6893F83D30DBB2002B3F
:10A7700006D17B68002283F83C20786808F048FB0B
:10A780007B68022283F83D207B681A687B6804336B
:10A790001946104600F0CAFC7B68012283F8462067
:10A7A0007B68012283F83E207B68012283F83F20EA
:10A7B0007B68012283F840207B68012283F84120D6
:10A7C0007B68012283F842207B68012283F84320C2
:10A7D0007B68012283F844207B68012283F84520AE
:10A7E0007B68012283F83D20002318460837BD46C8
:10A7F00080BD000080B485B000AF78607B6893F8BE
:10A800003D30DBB2012B01D0012346E07B68022200
:10A8100083F83D207B681B68234A934222D07B68E3
:10A820001B68B3F1804F1DD07B681B681F4A9342A1
:10A8300018D07B681B681E4A934213D07B681B6844
:10A840001C4A93420ED07B681B681B4A934209D076
:10A850007B681B68194A934204D07B681B68184ABE
:10A86000934211D17B681B689B6803F00703FB6070
:10A87000FB68062B10D07B681B681A687B681B6816
:10A8800042F001021A6007E07B681B681A687B6867
:10A890001B6842F001021A60002318461437BD46B7
:10A8A0005DF8047B704700BF0000014000040040D9
:10A8B00000080040000C004000040140004001403E
:10A8C0000018004080B485B000AF78607B6893F8D2
:10A8D0003D30DBB2012B01D001234EE07B68022228
:10A8E00083F83D207B681B68DA687B681B6842F050
:10A8F0000102DA607B681B68234A934222D07B689E
:10A900001B68B3F1804F1DD07B681B681F4A9342C0
:10A9100018D07B681B681E4A934213D07B681B6863
:10A920001C4A93420ED07B681B681B4A934209D095
:10A930007B681B68194A934204D07B681B68184ADD
:10A94000934211D17B681B689B6803F00703FB608F
:10A95000FB68062B10D07B681B681A687B681B6835
:10A9600042F001021A6007E07B681B681A687B6886
:10A970001B6842F001021A60002318461437BD46D6
:10A980005DF8047B704700BF0000014000040040F8
:10A9900000080040000C004000040140004001405D
:10A9A0000018004080B582B000AF78607B68002B53
:10A9B00001D1012341E07B6893F83D30DBB2002BED
:10A9C00006D17B68002283F83C20786800F039F8D3
:10A9D0007B68022283F83D207B681A687B68043319
:10A9E0001946104600F0A2FB7B68012283F846203E
:10A9F0007B68012283F83E207B68012283F83F2098
:10AA00007B68012283F840207B68012283F8412083
:10AA10007B68012283F842207B68012283F843206F
:10AA20007B68012283F844207B68012283F845205B
:10AA30007B68012283F83D20002318460837BD4675
:10AA400080BD80B483B000AF786000BF0C37BD46D6
:10AA50005DF8047B7047000080B584B000AF78607B
:10AA600039603B68002B09D17B6893F83E30DBB23C
:10AA7000012B14BF01230023DBB222E03B68042B2F
:10AA800009D17B6893F83F30DBB2012B14BF01235F
:10AA90000023DBB215E03B68082B09D17B6893F8F3
:10AAA0004030DBB2012B14BF01230023DBB208E0EE
:10AAB0007B6893F84130DBB2012B14BF01230023E4
:10AAC000DBB2002B01D001237CE03B68002B04D1DA
:10AAD0007B68022283F83E2013E03B68042B04D1FC
:10AAE0007B68022283F83F200BE03B68082B04D1EF
:10AAF0007B68022283F8402003E07B68022283F80F
:10AB000041207B681B6801223968184600F0FEFD71
:10AB10007B681B682D4A934204D07B681B682C4AD3
:10AB2000934201D1012300E00023002B07D07B6872
:10AB30001B685A6C7B681B6842F400425A647B684D
:10AB40001B68224A934222D07B681B68B3F1804F76
:10AB50001DD07B681B681F4A934218D07B681B6816
:10AB60001D4A934213D07B681B681C4A93420ED047
:10AB70007B681B68164A934209D07B681B68184A99
:10AB8000934204D07B681B68164A934211D17B68BC
:10AB90001B689B6803F00703FB60FB68062B10D063
:10ABA0007B681B681A687B681B6842F001021A60A8
:10ABB00007E07B681B681A687B681B6842F001022B
:10ABC0001A60002318461037BD4680BD00000140C2
:10ABD000000401400004004000080040000C004058
:10ABE000004001400018004080B584B000AF78609C
:10ABF0007B681B68DB68FB607B681B681B69BB604C
:10AC0000BB6803F00203002B20D0FB6803F00203B3
:10AC1000002B1BD07B681B686FF002021A617B68F7
:10AC200001221A777B681B689B6903F00303002BE2
:10AC300003D0786800F05BFA05E0786800F04DFA20
:10AC4000786800F05EFA7B6800221A77BB6803F030
:10AC50000403002B20D0FB6803F00403002B1BD05F
:10AC60007B681B686FF004021A617B6802221A7706
:10AC70007B681B689B6903F44073002B03D07868E2
:10AC800000F035FA05E0786800F027FA786800F0FF
:10AC900038FA7B6800221A77BB6803F00803002BA0
:10ACA00020D0FB6803F00803002B1BD07B681B68D7
:10ACB0006FF008021A617B6804221A777B681B68B0
:10ACC000DB6903F00303002B03D0786800F00FFA70
:10ACD00005E0786800F001FA786800F012FA7B6805
:10ACE00000221A77BB6803F01003002B20D0FB680A
:10ACF00003F01003002B1BD07B681B686FF0100261
:10AD00001A617B6808221A777B681B68DB6903F489
:10AD10004073002B03D0786800F0E9F905E078680B
:10AD200000F0DBF9786800F0ECF97B6800221A7714
:10AD3000BB6803F00103002B0CD0FB6803F0010398
:10AD4000002B07D07B681B686FF001021A617868DE
:10AD500007F022FCBB6803F08003002B0CD0FB68DB
:10AD600003F08003002B07D07B681B686FF0800224
:10AD70001A61786800F076FDBB6803F04003002B91
:10AD80000CD0FB6803F04003002B07D07B681B68E6
:10AD90006FF040021A61786800F0BDF9BB6803F0FB
:10ADA0002003002B0CD0FB6803F02003002B07D0FE
:10ADB0007B681B686FF020021A61786800F048FD1C
:10ADC00000BF1037BD4680BD80B586B000AFF860CB
:10ADD000B9607A600023FB75FB6893F83C30012B67
:10ADE00001D10223AEE0FB68012283F83C207B689E
:10ADF0000C2B00F29F8001A252F823F031AE000824
:10AE000035AF000835AF000835AF000871AE000857
:10AE100035AF000835AF000835AF0008B3AE000805
:10AE200035AF000835AF000835AF0008F3AE0008B5
:10AE3000FB681B68B968184600F01EFAFB681B68BF
:10AE40009A69FB681B6842F008029A61FB681B68FC
:10AE50009A69FB681B6822F004029A61FB681B6810
:10AE60009969BB681A69FB681B680A439A6164E0C8
:10AE7000FB681B68B968184600F06EFAFB681B682F
:10AE80009A69FB681B6842F400629A61FB681B6860
:10AE90009A69FB681B6822F480629A61FB681B68F0
:10AEA0009969BB681B691A02FB681B680A439A61AF
:10AEB00043E0FB681B68B968184600F0C3FAFB68FA
:10AEC0001B68DA69FB681B6842F00802DA61FB68FC
:10AED0001B68DA69FB681B6822F00402DA61FB6810
:10AEE0001B68D969BB681A69FB681B680A43DA6189
:10AEF00023E0FB681B68B968184600F017FBFB6885
:10AF00001B68DA69FB681B6842F40062DA61FB685F
:10AF10001B68DA69FB681B6822F48062DA61FB68EF
:10AF20001B68D969BB681B691A02FB681B680A4366
:10AF3000DA6102E00123FB7500BFFB68002283F8A1
:10AF40003C20FB7D18461837BD4680BD80B584B0D7
:10AF500000AF786039600023FB737B6893F83C3066
:10AF6000012B01D10223B4E07B68012283F83C204D
:10AF70007B68022283F83D207B681B689B68BB606E
:10AF8000BB6823F07703BB60BB6823F47F43BB60DF
:10AF90007B681B68BA689A603B681B68B3F5005F02
:10AFA0003ED0B3F5005F00F28780B3F5805F00F01C
:10AFB0008680B3F5805F7FD8702B1AD0702B7BD83A
:10AFC000602B50D0602B77D8502B3CD0502B73D8AF
:10AFD000402B58D0402B6FD8302B64D0302B6BD8FF
:10AFE000202B60D0202B67D8002B5CD0102B5AD0A0
:10AFF00062E07B6818683B6899683B685A683B6800
:10B00000DB6800F063FB7B681B689B68BB60BB6808
:10B0100043F07703BB607B681B68BA689A604FE0B7
:10B020007B6818683B6899683B685A683B68DB68CE
:10B0300000F04CFB7B681B689A687B681B6842F4D5
:10B0400080429A603CE07B6818683B6859683B68BE
:10B05000DB681A4600F0C0FA7B681B68502118466E
:10B0600000F019FB2CE07B6818683B6859683B6866
:10B07000DB681A4600F0DFFA7B681B68602118461F
:10B0800000F009FB1CE07B6818683B6859683B6866
:10B09000DB681A4600F0A0FA7B681B68402118465E
:10B0A00000F0F9FA0CE07B681A683B681B681946E7
:10B0B000104600F0F0FA03E00123FB7300E000BF4C
:10B0C0007B68012283F83D207B68002283F83C20C6
:10B0D000FB7B18461037BD4680BD80B483B000AFFF
:10B0E000786000BF0C37BD465DF8047B704780B4C4
:10B0F00083B000AF786000BF0C37BD465DF8047BBD
:10B10000704780B483B000AF786000BF0C37BD4695
:10B110005DF8047B704780B483B000AF786000BFF7
:10B120000C37BD465DF8047B7047000080B485B0E5
:10B1300000AF786039607B681B68FB607B68434ABE
:10B14000934213D07B68B3F1804F0FD07B68404AA5
:10B1500093420BD07B683F4A934207D07B683E4ABC
:10B16000934203D07B683D4A934208D1FB6823F0A9
:10B170007003FB603B685B68FA681343FB607B68A5
:10B18000324A93422BD07B68B3F1804F27D07B6843
:10B190002F4A934223D07B682E4A93421FD07B686C
:10B1A0002D4A93421BD07B682C4A934217D07B6870
:10B1B0002B4A934213D07B682A4A93420FD07B6874
:10B1C000294A93420BD07B68284A934207D07B6878
:10B1D000274A934203D07B68264A934208D1FB68F2
:10B1E00023F44073FB603B68DB68FA681343FB6041
:10B1F000FB6823F080023B685B691343FB603B689C
:10B200009A687B68DA623B681A687B689A627B6836
:10B210000E4A934203D07B68104A934203D13B68A5
:10B220001A697B681A637B681B6843F004027B68B9
:10B230001A607B6801225A617B68FA681A6000BF55
:10B240001437BD465DF8047B704700BF0000014025
:10B250000004004000080040000C004000040140D1
:10B2600000400140004401400048014000180040F7
:10B27000001C00400020004080B487B000AF786020
:10B2800039607B681B6A7B617B681B6A23F0010263
:10B290007B681A627B685B683B617B689B69FB60CB
:10B2A000FB6823F07003FB60FB6823F00303FB6083
:10B2B0003B681B68FA681343FB607B6923F0020359
:10B2C0007B613B689B687A6913437B617B68204A9A
:10B2D000934203D07B681F4A93420CD17B6923F0D1
:10B2E00008037B613B68DB687A6913437B617B6998
:10B2F00023F004037B617B68154A934203D07B688B
:10B30000144A934211D13B6923F480733B613B693A
:10B3100023F400733B613B685B693A6913433B610B
:10B320003B689B693A6913433B617B683A695A60A1
:10B330007B68FA689A613B685A687B685A637B68E5
:10B340007A691A6200BF1C37BD465DF8047B7047FE
:10B35000000001400004014080B487B000AF786075
:10B3600039607B681B6A7B617B681B6A23F0100273
:10B370007B681A627B685B683B617B689B69FB60EA
:10B38000FB6823F4E043FB60FB6823F44073FB603D
:10B390003B681B681B02FA681343FB607B6923F060
:10B3A00020037B613B689B681B017A6913437B61C7
:10B3B0007B68224A934203D07B68214A93420DD195
:10B3C0007B6923F080037B613B68DB681B017A6942
:10B3D00013437B617B6923F040037B617B68174AE1
:10B3E000934203D07B68164A934213D13B6923F4FE
:10B3F00080633B613B6923F400633B613B685B69AD
:10B400009B003A6913433B613B689B699B003A6927
:10B4100013433B617B683A695A607B68FA689A61BA
:10B420003B685A687B689A637B687A691A6200BFD6
:10B430001C37BD465DF8047B704700BF000001402B
:10B440000004014080B487B000AF786039607B6849
:10B450001B6A7B617B681B6A23F480727B681A62BB
:10B460007B685B683B617B68DB69FB60FB6823F0A2
:10B470007003FB60FB6823F00303FB603B681B6801
:10B48000FA681343FB607B6923F400737B613B68BC
:10B490009B681B027A6913437B617B68214A934254
:10B4A00003D07B68204A93420DD17B6923F400636B
:10B4B0007B613B68DB681B027A6913437B617B69B4
:10B4C00023F480637B617B68164A934203D07B68D8
:10B4D000154A934213D13B6923F480533B613B6986
:10B4E00023F400533B613B685B691B013A691343DA
:10B4F0003B613B689B691B013A6913433B617B6875
:10B500003A695A607B68FA68DA613B685A687B6816
:10B51000DA637B687A691A6200BF1C37BD465DF842
:10B52000047B7047000001400004014080B487B0F4
:10B5300000AF786039607B681B6A3B617B681B6A7F
:10B5400023F480527B681A627B685B687B617B684E
:10B55000DB69FB60FB6823F4E043FB60FB6823F4DA
:10B560004073FB603B681B681B02FA681343FB6077
:10B570003B6923F400533B613B689B681B033A69BA
:10B5800013433B617B68124A934203D07B68114AA4
:10B59000934209D17B6923F480437B613B685B69FB
:10B5A0009B017A6913437B617B687A695A607B6887
:10B5B000FA68DA613B685A687B681A647B683A69A2
:10B5C0001A6200BF1C37BD465DF8047B704700BFA0
:10B5D000000001400004014080B487B000AFF86073
:10B5E000B9607A60FB681B6A7B61FB681B6A23F0A9
:10B5F0000102FB681A62FB689B693B613B6923F0AF
:10B60000F0033B617B681B013A6913433B617B6933
:10B6100023F00A037B617A69BB6813437B61FB6893
:10B620003A699A61FB687A691A6200BF1C37BD46A5
:10B630005DF8047B704780B487B000AFF860B960F4
:10B640007A60FB681B6A7B61FB681B6A23F010024F
:10B65000FB681A62FB689B693B613B6923F470439A
:10B660003B617B681B033A6913433B617B6923F0B1
:10B67000A0037B61BB681B017A6913437B61FB6894
:10B680003A699A61FB687A691A6200BF1C37BD4645
:10B690005DF8047B704780B485B000AF7860396096
:10B6A0007B689B68FB60FB6823F07003FB603A6873
:10B6B000FB68134343F00703FB607B68FA689A60FA
:10B6C00000BF1437BD465DF8047B704780B487B077
:10B6D00000AFF860B9607A603B60FB689B687B6193
:10B6E0007B6923F47F437B613B681A027B681A43C2
:10B6F000BB6813437A6913437B61FB687A699A607C
:10B7000000BF1C37BD465DF8047B704780B487B02E
:10B7100000AFF860B9607A60BB6803F01F030122D4
:10B7200002FA03F37B61FB681A6A7B69DB431A4008
:10B73000FB681A62FB681A6ABB6803F01F0379682A
:10B7400001FA03F31A43FB681A6200BF1C37BD46B7
:10B750005DF8047B7047000080B485B000AF78606E
:10B7600039607B6893F83C30012B01D102235AE009
:10B770007B68012283F83C207B68022283F83D200D
:10B780007B681B685B68FB607B681B689B68BB60B1
:10B79000FB6823F07003FB603B681B68FA68134387
:10B7A000FB607B681B68FA685A607B681B68214AEB
:10B7B000934222D07B681B68B3F1804F1DD07B6819
:10B7C0001B681D4A934218D07B681B681B4A934232
:10B7D00013D07B681B681A4A93420ED07B681B68A3
:10B7E000184A934209D07B681B68174A934204D0D9
:10B7F0007B681B68154A93420CD1BB6823F0800319
:10B80000BB603B685B68BA681343BB607B681B68BE
:10B81000BA689A607B68012283F83D207B68002229
:10B8200083F83C20002318461437BD465DF8047B9E
:10B83000704700BF000001400004004000080040C5
:10B84000000C00400004014000400140001800408E
:10B8500080B483B000AF786000BF0C37BD465DF8A0
:10B86000047B704780B483B000AF786000BF0C37B2
:10B87000BD465DF8047B704780B584B000AF78604A
:10B880000023FB737B68002B01D1012333E07B682D
:10B890001B6C002B09D1786807F0FCF87B6800224C
:10B8A0005A647B68002283F83C207B681B6C03F0A1
:10B8B0001003002B18D17B681B6C23F4885323F0F2
:10B8C000020343F002027B681A64786800F04AF9C8
:10B8D0007B6800225A647B681B6C23F0030343F0EF
:10B8E00001027B681A6401E00123FB737B6800227C
:10B8F00083F83C20FB7B18461037BD4680BD000016
:10B9000080B485B000AF786039600023BB607B688D
:10B9100093F83C30012B01D1022313E17B68012213
:10B9200083F83C203B681B68092B25D97B681B6882
:10B93000D9683B681B689BB21A4613465B001344E8
:10B940001E3B072202FA03F3DA437B681B680A40B6
:10B95000DA607B681B68D9683B689A683B681B683B
:10B960009BB2184603465B0003441E3B9A407B682B
:10B970001B680A43DA6022E07B681B6819693B6830
:10B980001B689BB21A4613465B001344072202FA57
:10B9900003F3DA437B681B680A401A617B681B6803
:10B9A00019693B689A683B681B689BB21846034656
:10B9B0005B0003449A407B681B680A431A613B683A
:10B9C0005B68062B24D87B681B68596B3B685A68F8
:10B9D00013469B001344053B1F2202FA03F3DA438C
:10B9E0007B681B680A405A637B681B68596B3B681D
:10B9F0001B689BB218463B685A6813469B00134469
:10BA0000053B00FA03F27B681B680A435A634CE06B
:10BA10003B685B680C2B24D87B681B68196B3B6800
:10BA20005A6813469B001344233B1F2202FA03F378
:10BA3000DA437B681B680A401A637B681B68196BD2
:10BA40003B681B689BB218463B685A6813469B00CC
:10BA50001344233B00FA03F27B681B680A431A6312
:10BA600023E07B681B68D96A3B685A6813469B00D1
:10BA70001344413B1F2202FA03F3DA437B681B683D
:10BA80000A40DA627B681B68D96A3B681B689BB214
:10BA900018463B685A6813469B001344413B00FA22
:10BAA00003F27B681B680A43DA62294BFB607B6800
:10BAB0001B68284A93420FD13B681B68122B0BD19D
:10BAC000FB685B6823F40002FB685A60FB685B68F4
:10BAD00043F48002FB685A607B681B681D4A9342EE
:10BAE0002BD13B681B681C4A934203D03B681B6800
:10BAF000112B22D1FB685B6823F48002FB685A603B
:10BB0000FB685B6843F40002FB685A603B681B6893
:10BB1000114A934211D1114B1B68114AA2FB032316
:10BB20009A0C13469B0013445B00BB6002E0BB68A9
:10BB3000013BBB60BB68002BF9D17B68002283F816
:10BB40003C20002318461437BD465DF8047B70473F
:10BB50000023014000200140120000105C00002082
:10BB600083DE1B4380B485B000AF7860794BFB6007
:10BB7000FB685B6823F44032FB685A60FB685A68D4
:10BB80007B685B681A43FB685A607B681B685A686D
:10BB90007B681B6822F480725A607B681B68596856
:10BBA0007B681B691A027B681B680A435A607B68C2
:10BBB0001B685A687B681B6822F040725A607B6879
:10BBC0001B6859687B689A687B681B680A435A60DF
:10BBD0007B681B689A687B681B6822F400629A6025
:10BBE0007B681B6899687B68DA687B681B680A4316
:10BBF0009A607B689B6A584A934222D07B681B6894
:10BC00009A687B681B6822F070629A607B681B6888
:10BC100099687B689A6A7B681B680A439A607B68AC
:10BC20001B689A687B681B6822F040529A607B68A8
:10BC30001B6899687B68DA6A7B681B680A439A60AC
:10BC40000FE07B681B689A687B681B6822F0706253
:10BC50009A607B681B689A687B681B6822F0405278
:10BC60009A607B681B689A687B681B6822F00202F6
:10BC70009A607B681B6899687B681B7E5A007B68AA
:10BC80001B680A439A607B6893F82030002B1BD016
:10BC90007B681B685A687B681B6842F400625A60C4
:10BCA0007B681B685A687B681B6822F460425A6094
:10BCB0007B681B6859687B685B6A013B5A037B6839
:10BCC0001B680A435A6007E07B681B685A687B68F8
:10BCD0001B6822F400625A607B681B68DA6A7B6822
:10BCE0001B6822F47002DA627B681B68D96A7B6881
:10BCF000DB69013B1A057B681B680A43DA627B68D3
:10BD00001B689A687B681B6822F400729A607B68E3
:10BD10001B6899687B6893F830305A027B681B680F
:10BD20000A439A607B681B689A687B681B6822F4E8
:10BD300080629A607B681B6899687B685B699A027D
:10BD40007B681B680A439A6000BF1437BD465DF8E4
:10BD5000047B7047002301400100000F80B586B0CE
:10BD600000AF78607B68002B01D1012367E27B681C
:10BD70001B6803F00103002B75D0884B9B6803F010
:10BD80000C03042B0CD0854B9B6803F00C03082B91
:10BD900012D1824B5B6803F48003B3F5800F0BD1A3
:10BDA0007E4B1B6803F40033002B5BD07B685B6821
:10BDB000002B57D1012342E27B685B68B3F5803FDB
:10BDC00006D1764B1B68754A43F4803313601DE03F
:10BDD0007B685B68B3F5A02F0CD1704B1B686F4A72
:10BDE00043F4802313606D4B1B686C4A43F480332B
:10BDF00013600BE0694B1B68684A23F480331360BF
:10BE0000664B1B68654A23F4802313607B685B687C
:10BE1000002B13D001F0A6FB386108E001F0A2FB73
:10BE200002463B69D31A642B01D9032307E25B4B1B
:10BE30001B6803F40033002BF0D014E001F092FBF8
:10BE4000386108E001F08EFB02463B69D31A642B8F
:10BE500001D90323F3E1514B1B6803F40033002B9A
:10BE6000F0D100E000BF7B681B6803F00203002BE9
:10BE700063D04A4B9B6803F00C03002B0BD0474B5D
:10BE80009B6803F00C03082B1CD1444B5B6803F444
:10BE90008003002B16D1414B1B6803F00203002BDB
:10BEA00005D07B68DB68012B01D00123C7E13B4B48
:10BEB0001B6823F0F8027B681B69DB0037491343DA
:10BEC0000B603AE07B68DB68002B20D0344B01220A
:10BED0001A6001F047FB386108E001F043FB0246BD
:10BEE0003B69D31A022B01D90323A8E12B4B1B6812
:10BEF00003F00203002BF0D0284B1B6823F0F8025C
:10BF00007B681B69DB00254913430B6015E0244B5C
:10BF100000221A6001F026FB386108E001F022FBE4
:10BF200002463B69D31A022B01D9032387E11B4B3D
:10BF30001B6803F00203002BF0D17B681B6803F041
:10BF40000803002B36D07B685B69002B16D0154B9D
:10BF500001221A6001F006FB386108E001F002FBE3
:10BF600002463B69D31A022B01D9032367E10B4B2D
:10BF70005B6F03F00203002BF0D01BE0094B0022A3
:10BF80001A6001F0EFFA38610EE001F0EBFA0246B8
:10BF90003B69D31A022B07D9032350E10038024032
:10BFA00000004742800E4742884B5B6F03F002035C
:10BFB000002BEAD17B681B6803F00403002B00F020
:10BFC00097800023FB75814B1B6C03F08053002B83
:10BFD0000FD10023BB607D4B1B6C7C4A43F0805328
:10BFE00013647A4B1B6C03F08053BB60BB68012366
:10BFF000FB75774B1B6803F48073002B18D1744BCF
:10C000001B68734A43F48073136001F0ABFA386124
:10C0100008E001F0A7FA02463B69D31A022B01D9C6
:10C0200003230CE16A4B1B6803F48073002BF0D0F0
:10C030007B689B68012B06D1644B1B6F634A43F0FE
:10C04000010313671CE07B689B68052B0CD15F4BD9
:10C050001B6F5E4A43F0040313675C4B1B6F5B4A24
:10C0600043F0010313670BE0584B1B6F574A23F053
:10C0700001031367554B1B6F544A23F004031367E6
:10C080007B689B68002B15D001F06CFA38610AE0E0
:10C0900001F068FA02463B69D31A41F288329342B2
:10C0A00001D90323CBE0494B1B6F03F00203002BA4
:10C0B000EED014E001F056FA38610AE001F052FACD
:10C0C00002463B69D31A41F28832934201D90323D5
:10C0D000B5E03E4B1B6F03F00203002BEED1FB7D5E
:10C0E000012B05D1394B1B6C384A23F08053136464
:10C0F0007B689B69002B00F0A180344B9B6803F0A8
:10C100000C03082B5CD07B689B69022B41D1314B1F
:10C1100000221A6001F026FA386108E001F022FAE4
:10C1200002463B69D31A022B01D9032387E0274B30
:10C130001B6803F00073002BF0D17B68DA697B6821
:10C140001B6A1A437B685B6A9B011A437B689B6A84
:10C150005B08013B1B041A437B68DB6A1B061B4917
:10C1600013434B601B4B01221A6001F0FBF938614D
:10C1700008E001F0F7F902463B69D31A022B01D916
:10C1800003235CE0114B1B6803F00073002BF0D01D
:10C1900054E0104B00221A6001F0E4F9386108E025
:10C1A00001F0E0F902463B69D31A022B01D90323BF
:10C1B00045E0064B1B6803F00073002BF0D13DE017
:10C1C0007B689B69012B07D1012338E000380240CE
:10C1D00000700040600047421B4B5B68FB607B685F
:10C1E0009B69012B28D0FB6803F480027B68DB6924
:10C1F0009A4221D1FB6803F03F027B681B6A9A4296
:10C200001AD1FA6847F6C07313407A68526A9201ED
:10C21000934211D1FB6803F440327B689B6A5B0850
:10C22000013B1B049A4207D1FB6803F070627B68F4
:10C23000DB6A1B069A4201D0012300E00023184666
:10C240001837BD4680BD00BF0038024080B584B0BD
:10C2500000AF786039607B68002B01D10123CCE00E
:10C26000684B1B6803F00F033A689A420CD9654B80
:10C270003A68D2B21A70634B1B6803F00F033A6836
:10C280009A4201D00123B8E07B681B6803F00203E7
:10C29000002B20D07B681B6803F00403002B05D023
:10C2A000594B9B68584A43F4E05393607B681B6882
:10C2B00003F00803002B05D0534B9B68524A43F40C
:10C2C00060439360504B9B6823F0F0027B689B684F
:10C2D0004D4913438B607B681B6803F00103002BFF
:10C2E00044D07B685B68012B07D1474B1B6803F484
:10C2F0000033002B19D101237FE07B685B68022BA0
:10C3000003D07B685B68032B07D13F4B1B6803F0AE
:10C310000073002B09D101236FE03B4B1B6803F036
:10C320000203002B01D1012367E0374B9B6823F008
:10C3300003027B685B68344913438B6001F012F998
:10C34000F8600AE001F00EF90246FB68D31A41F2E8
:10C350008832934201D903234FE02B4B9B6803F0B3
:10C360000C027B685B689B009A42EBD1254B1B68F3
:10C3700003F00F033A689A420CD2224B3A68D2B2C9
:10C380001A70204B1B6803F00F033A689A4201D0E1
:10C39000012332E07B681B6803F00403002B08D004
:10C3A000194B9B6823F4E0527B68DB681649134302
:10C3B0008B607B681B6803F00803002B09D0124BCD
:10C3C0009B6823F460427B681B69DB000E491343C2
:10C3D0008B6000F021F802460B4B9B681B0903F0B1
:10C3E0000F030A49CB5C22FA03F3094A1360094B95
:10C3F0001B68184606F0A8FF002318461037BD46F4
:10C4000080BD00BF003C024000380240385F010898
:10C410005C000020600000202DE9B04F90B000AF1C
:10C4200000237B630023FB6300233B630023BB6388
:10C43000594B9B6803F00C03082B0DD0082B00F21E
:10C44000A180002B02D0042B03D09BE0534BBB6395
:10C450009BE0534BBB6398E04F4B5B6803F03F039B
:10C460007B634D4B5B6803F48003002B28D04A4B61
:10C470005B689B0900223B627A623B6AC3F3080057
:10C480000021474B03FB01F2002300FB03F313449D
:10C49000434AA0FB0212FA620A46BA62FA6A1344DD
:10C4A000FB627B6B0022BB61FA61D7E90623D7E907
:10C4B0000A01FBF7C9FE02460B461346FB6353E035
:10C4C000354B5B689B0900223B617A613B69C3F392
:10C4D000080A4FF0000B52465B464FF000004FF049
:10C4E0000001590141EAD261500102460B46B2EB0C
:10C4F0000A0863EB0B094FF000024FF000034FEA0C
:10C50000891343EA98634FEA8812B2EB080463EB9D
:10C5100009054FF000024FF00003EB0043EA5473AB
:10C52000E20014461D4614EB0A033B6045EB0B0387
:10C530007B604FF000024FF00003D7E90045294629
:10C540008B02214643EA915321468A02104619463E
:10C550007B6B0022BB60FA60D7E90223FBF774FE15
:10C5600002460B461346FB630B4B5B681B0C03F048
:10C57000030301335B003B63FA6B3B6BB2FBF3F3EA
:10C58000BB6302E0054BBB6300BFBB6B1846403783
:10C59000BD46BDE8B08F00BF003802400024F40063
:10C5A00040787D0180B400AF034B1B681846BD4640
:10C5B0005DF8047B704700BF5C00002080B500AFD1
:10C5C000FFF7F0FF0246054B9B689B0A03F0070349
:10C5D0000349CB5C22FA03F3184680BD00380240C1
:10C5E000485F010880B500AFFFF7DCFF0246054B4E
:10C5F0009B685B0B03F007030349CB5C22FA03F350
:10C60000184680BD00380240485F010880B483B0FE
:10C6100000AF786039607B680F221A60124B9B680C
:10C6200003F003027B685A600F4B9B6803F0F00233
:10C630007B689A600C4B9B6803F4E0527B68DA607D
:10C64000094B9B68DB0803F4E0527B681A61074BD7
:10C650001B6803F00F023B681A6000BF0C37BD4631
:10C660005DF8047B704700BF00380240003C024088
:10C6700080B489B000AF7860396000237B6100230B
:10C680003B610023BB610023FB6177E10122FB6971
:10C6900002FA03F37B613B681B687A6913403B61D4
:10C6A0003A697B699A4240F066813B685B6803F0B7
:10C6B0000303012B05D03B685B6803F00303022BE7
:10C6C00030D17B689B68BB61FB695B00032202FA87
:10C6D00003F3DB43BA691340BB613B68DA68FB696B
:10C6E0005B0002FA03F3BA691343BB617B68BA6962
:10C6F0009A607B685B68BB610122FB6902FA03F305
:10C70000DB43BA691340BB613B685B681B0903F0FC
:10C710000102FB6902FA03F3BA691343BB617B6848
:10C72000BA695A603B685B6803F00303032B17D0B8
:10C730007B68DB68BB61FB695B00032202FA03F3E1
:10C74000DB43BA691340BB613B689A68FB695B00D5
:10C7500002FA03F3BA691343BB617B68BA69DA6012
:10C760003B685B6803F00303022B23D1FB69DA0803
:10C770007B68083253F82230BB61FB6903F0070382
:10C780009B000F2202FA03F3DB43BA691340BB613B
:10C790003B681A69FB6903F007039B0002FA03F385
:10C7A000BA691343BB61FB69DA087B680832B9696F
:10C7B00043F822107B681B68BB61FB695B000322A6
:10C7C00002FA03F3DB43BA691340BB613B685B6861
:10C7D00003F00302FB695B0002FA03F3BA69134337
:10C7E000BB617B68BA691A603B685B6803F44033DD
:10C7F000002B00F0C0800023FB60664B5B6C654A39
:10C8000043F480435364634B5B6C03F48043FB60ED
:10C81000FB68614AFB699B08023352F82330BB6115
:10C82000FB6903F003039B000F2202FA03F3DB43CF
:10C83000BA691340BB617B68584A934237D07B6822
:10C84000574A934231D07B68564A93422BD07B683B
:10C85000554A934225D07B68544A93421FD07B6847
:10C86000534A934219D07B68524A934213D07B6853
:10C87000514A93420DD07B68504A934207D07B685F
:10C880004F4A934201D1092312E00A2310E0082302
:10C890000EE007230CE006230AE0052308E004234A
:10C8A00006E0032304E0022302E0012300E000236A
:10C8B000FA6902F0030292009340BA691343BB6124
:10C8C0003549FB699B080233BA6941F823203D4B87
:10C8D0009B68BB613B69DB43BA691340BB613B6842
:10C8E0005B6803F48013002B03D0BA693B691343E0
:10C8F000BB61344ABB699360324BDB68BB613B6907
:10C90000DB43BA691340BB613B685B6803F4001307
:10C91000002B03D0BA693B691343BB61294ABB6949
:10C92000D360284B5B68BB613B69DB43BA6913404A
:10C93000BB613B685B6803F40033002B03D0BA692A
:10C940003B691343BB611F4ABB6953601D4B1B68A6
:10C95000BB613B69DB43BA691340BB613B685B6801
:10C9600003F48033002B03D0BA693B691343BB61E6
:10C97000144ABB691360FB690133FB61FB690F2B30
:10C980007FF684AE00BF00BF2437BD465DF8047B50
:10C99000704700BF003802400038014000000240EC
:10C9A0000004024000080240000C02400010024057
:10C9B0000014024000180240001C02400020024007
:10C9C00000240240003C014080B485B000AF786094
:10C9D0000B467B807B681A697B881340002B02D052
:10C9E0000123FB7301E00023FB73FB7B1846143724
:10C9F000BD465DF8047B704780B483B000AF7860BB
:10CA00000B467B8013467B707B78002B03D07A88A3
:10CA10007B689A6103E07B881A047B689A6100BF97
:10CA20000C37BD465DF8047B704780B485B000AF1D
:10CA300078600B467B807B685B69FB607A88FB686B
:10CA400013401A04FB68D9437B880B401A437B6868
:10CA50009A6100BF1437BD465DF8047B7047000043
:10CA600080B582B000AF0346FB80084B5A69FB8853
:10CA70001340002B06D0054AFB885361FB881846FB
:10CA800005F01EFF00BF0837BD4680BD003C0140D9
:10CA900080B586B000AF786000237B6100F062FD56
:10CAA00038617B68002B01D1012399E07B68022269
:10CAB00083F835207B68002283F834207B681B686C
:10CAC0001A687B681B6822F001021A600FE000F010
:10CAD00049FD02463B69D31A052B08D97B68202201
:10CAE0005A657B68032283F83520032378E07B684E
:10CAF0001B681B6803F00103002BE8D17B681B68EF
:10CB00001B687B617A69384B13407B617B685A688C
:10CB10007B689B681A437B68DB681A437B681B69E8
:10CB20001A437B685B691A437B689B691A437B687D
:10CB3000DB691A437B681B6A13437A6913437B6181
:10CB40007B685B6A042B07D17B68DA6A7B681B6BA6
:10CB500013437A6913437B617B681B687A691A60A7
:10CB60007B681B685B697B617B6923F007037B61E2
:10CB70007B685B6A7A6913437B617B685B6A042B21
:10CB800017D17B689B6A7A6913437B617B68DB6A98
:10CB9000002B0ED0786800F001FB0346002B08D074
:10CBA0007B6840225A657B68012283F83520012387
:10CBB00016E07B681B687A695A61786800F0B8FAF9
:10CBC0000346FB607B68DB6D3F229A40FB689A60FE
:10CBD0007B6800225A657B68012283F83520002398
:10CBE00018461837BD4680BD3F8010F080B586B02E
:10CBF00000AFF860B9607A603B600023FB75FB68AA
:10CC00009B6D3B61FB6893F83430012B01D102230B
:10CC100040E0FB68012283F83420FB6893F835304C
:10CC2000DBB2012B2FD1FB68022283F83520FB6891
:10CC300000225A653B687A68B968F86800F04AFAD9
:10CC4000FB68DB6D3F229A403B699A60FB681B687A
:10CC50001A68FB681B6842F016021A60FB681B6CBE
:10CC6000002B07D0FB681B681A68FB681B6842F042
:10CC700008021A60FB681B681A68FB681B6842F0B0
:10CC800001021A6005E0FB68002283F834200223C9
:10CC9000FB75FB7D18461837BD4680BD80B584B056
:10CCA00000AF78607B689B6DFB6000F05BFCB86058
:10CCB0007B6893F83530DBB2022B08D07B6880228A
:10CCC0005A657B68002283F83420012352E07B6898
:10CCD0001B681A687B681B6822F016021A607B6862
:10CCE0001B685A697B681B6822F080025A617B6866
:10CCF0001B6C002B03D17B689B6C002B07D07B68DF
:10CD00001B681A687B681B6822F008021A607B683F
:10CD10001B681A687B681B6822F001021A6013E026
:10CD200000F020FC0246BB68D31A052B0CD97B68A7
:10CD300020225A657B68032283F835207B68002215
:10CD400083F83420032315E07B681B681B6803F01D
:10CD50000103002BE4D17B68DB6D3F229A40FB6826
:10CD60009A607B68012283F835207B68002283F873
:10CD70003420002318461037BD4680BD80B483B0F0
:10CD800000AF78607B6893F83530DBB2022B04D0BB
:10CD90007B6880225A6501230CE07B68052283F8BA
:10CDA00035207B681B681A687B681B6822F00102CB
:10CDB0001A60002318460C37BD465DF8047B7047A7
:10CDC00080B586B000AF78600023BB608E4B1B68D7
:10CDD0008E4AA2FB03239B0A7B617B689B6D3B61B0
:10CDE0003B691B68FB607B68DB6D08229A40FB682F
:10CDF0001340002B1AD07B681B681B6803F00403E8
:10CE0000002B13D07B681B681A687B681B6822F0B4
:10CE100004021A607B68DB6D08229A403B699A60C5
:10CE20007B685B6D43F001027B685A657B68DB6D54
:10CE300001229A40FB681340002B12D07B681B68CC
:10CE40005B6903F08003002B0BD07B68DB6D012254
:10CE50009A403B699A607B685B6D43F002027B6895
:10CE60005A657B68DB6D04229A40FB681340002BF7
:10CE700012D07B681B681B6803F00203002B0BD0E9
:10CE80007B68DB6D04229A403B699A607B685B6D2E
:10CE900043F004027B685A657B68DB6D10229A4080
:10CEA000FB681340002B43D07B681B681B6803F0B2
:10CEB0000803002B3CD07B68DB6D10229A403B6955
:10CEC0009A607B681B681B6803F48023002B18D0D2
:10CED0007B681B681B6803F40023002B08D17B6868
:10CEE0001B6C002B24D07B681B6C786898471FE074
:10CEF0007B689B6C002B1BD07B689B6C7868984789
:10CF000016E07B681B681B6803F48073002B07D155
:10CF10007B681B681A687B681B6822F008021A602D
:10CF20007B681B6C002B03D07B681B6C7868984770
:10CF30007B68DB6D20229A40FB681340002B00F0D9
:10CF40008F807B681B681B6803F01003002B00F0C8
:10CF500087807B68DB6D20229A403B699A607B6802
:10CF600093F83530DBB2052B36D17B681B681A6825
:10CF70007B681B6822F016021A607B681B685A697E
:10CF80007B681B6822F080025A617B681B6C002B57
:10CF900003D17B689B6C002B07D07B681B681A68E9
:10CFA0007B681B6822F008021A607B68DB6D3F22F9
:10CFB0009A403B699A607B68012283F835207B6840
:10CFC000002283F834207B681B6D002B7ED07B68A9
:10CFD0001B6D7868984779E07B681B681B6803F4D1
:10CFE0008023002B1DD07B681B681B6803F4002383
:10CFF000002B0DD17B685B6C002B31D07B685B6CA8
:10D00000786898472CE000BF5C000020B5814E1B7B
:10D010007B68DB6B002B23D07B68DB6B78689847E1
:10D020001EE07B681B681B6803F48073002B0FD124
:10D030007B681B681A687B681B6822F010021A6004
:10D040007B68012283F835207B68002283F8342036
:10D050007B68DB6B002B03D07B68DB6B78689847C1
:10D060007B685B6D002B32D07B685B6D03F0010346
:10D07000002B22D07B68052283F835207B681B6853
:10D080001A687B681B6822F001021A60BB680133D2
:10D09000BB607A699A4207D37B681B681B6803F000
:10D0A0000103002BF2D100E000BF7B68012283F86E
:10D0B00035207B68002283F834207B68DB6C002BF2
:10D0C00005D07B68DB6C7868984700E000BF1837B4
:10D0D000BD4680BD80B485B000AFF860B9607A60AD
:10D0E0003B60FB681B681A68FB681B6822F480229F
:10D0F0001A60FB681B683A685A60FB689B68402BA3
:10D1000008D1FB681B687A689A60FB681B68BA687C
:10D11000DA6007E0FB681B68BA689A60FB681B6806
:10D120007A68DA6000BF1437BD465DF8047B70474B
:10D1300080B485B000AF78607B681B68DBB2103BC1
:10D14000144AA2FB03231B09FB60134AFB68134428
:10D150001B781A467B68DA65FB68032B09D97B6864
:10D160001B6823F47F7323F003031A1D7B689A6501
:10D1700007E07B681B6823F47F7323F003037A685E
:10D1800093657B689B6D18461437BD465DF8047B3C
:10D19000704700BFABAAAAAA505F010880B485B04F
:10D1A00000AF78600023FB737B689B6ABB607B6881
:10D1B0009B69002B1FD1BB68032B56D801A252F8E4
:10D1C00023F000BFD5D10008E7D10008D5D1000871
:10D1D0006BD200087B68DB6A03F08073002B46D0BB
:10D1E0000123FB7343E07B68DB6AB3F1C07F40D16E
:10D1F0000123FB733DE07B689B69B3F5005F21D1A0
:10D20000BB68032B37D801A252F823F01DD20008C7
:10D2100023D200081DD2000835D200080123FB7379
:10D2200030E07B68DB6A03F08073002B25D001239C
:10D23000FB7322E07B68DB6AB3F1C07F1FD101235F
:10D24000FB731CE0BB68022B03D9BB68032B03D024
:10D2500018E00123FB7315E07B68DB6A03F0807341
:10D26000002B0ED00123FB730BE000BF0AE000BFD0
:10D2700008E000BF06E000BF04E000BF02E000BF1E
:10D2800000E000BFFB7B18461437BD465DF8047B09
:10D29000704700BF80B582B000AF00237B600023E1
:10D2A0003B60204B1B6C1F4A43F0805313641D4BA3
:10D2B0001B6C03F080533B603B681B4B01221A60E0
:10D2C00000F050F9786009E000F04CF902467B6804
:10D2D000D31AB3F57A7F01D903231FE0134B5B68A0
:10D2E00003F48033B3F5803FEED1114B01221A6075
:10D2F00000F038F9786009E000F034F902467B6804
:10D30000D31AB3F57A7F01D9032307E0074B5B6893
:10D3100003F40033B3F5003FEED10023184608377D
:10D32000BD4680BD0038024040000E420070004003
:10D3300044000E4280B485B000AF78607B6803F093
:10D340000703FB600C4BDB68BB60BA684FF6FF035A
:10D350001340BB60FB681A02BB68134343F0BF6312
:10D3600043F40033BB60044ABB68D36000BF14378A
:10D37000BD465DF8047B704700ED00E080B400AF6F
:10D38000044BDB681B0A03F007031846BD465DF833
:10D39000047B704700ED00E080B483B000AF03462B
:10D3A000FB7197F90730002B0BDBFB7903F01F02B1
:10D3B000074997F907305B09012000FA02F241F8AA
:10D3C000232000BF0C37BD465DF8047B704700BFCB
:10D3D00000E100E080B483B000AF03463960FB7128
:10D3E00097F90730002B0ADB3B68DAB20C4997F952
:10D3F00007301201D2B20B4483F800230AE03B68E5
:10D40000DAB20849FB7903F00F03043B1201D2B2F0
:10D410000B441A7600BF0C37BD465DF8047B70479D
:10D4200000E100E000ED00E080B489B000AFF860FA
:10D43000B9607A60FB6803F00703FB61FB69C3F125
:10D440000703042B28BF0423BB61FB690433062BAD
:10D4500002D9FB69033B00E000237B614FF0FF3200
:10D46000BB6902FA03F3DA43BB681A407B699A404E
:10D470004FF0FF317B6901FA03F3D9437B680B401E
:10D48000134318462437BD465DF8047B704780B5CA
:10D4900082B000AF78607868FFF74CFF00BF0837B4
:10D4A000BD4680BD80B586B000AF0346B9607A60E6
:10D4B000FB7300237B61FFF761FF78617A68B968CD
:10D4C0007869FFF7B1FF024697F90F301146184609
:10D4D000FFF780FF00BF1837BD4680BD80B582B022
:10D4E00000AF0346FB7197F907301846FFF754FF6A
:10D4F00000BF0837BD4680BD80B500AF0E4B1B682E
:10D500000D4A43F4007313600B4B1B680A4A43F443
:10D5100080631360084B1B68074A43F480731360F1
:10D520000320FFF7B4FF0F2005F00EFF05F0E0FE2B
:10D530000023184680BD00BF003C024080B400AF0D
:10D54000064B1B781A46064B1B681344044A1360AB
:10D5500000BFBD465DF8047B704700BF640000203B
:10D560000802002080B400AF034B1B681846BD467C
:10D570005DF8047B704700BF0802002080B584B0CE
:10D5800000AF7860FFF7EEFFB8607B68FB60FB6878
:10D59000B3F1FF3F05D00A4B1B781A46FB681344D2
:10D5A000FB6000BFFFF7DEFF0246BB68D31AFA68D4
:10D5B0009A42F7D800BF00BF1037BD4680BD00BFFC
:10D5C0006400002080B584B000AF78607B68002BD9
:10D5D00001D101232BE17B6893F83D30DBB2002BB6
:10D5E00006D17B68002283F83C20786805F0FEFABB
:10D5F0007B68242283F83D207B681B681A687B685F
:10D600001B6822F001021A607B681B681A687B683D
:10D610001B6842F400421A607B681B681A687B68CA
:10D620001B6822F400421A60FEF7C8FFF8607B68AE
:10D630005B68814A934207D8FB68804A934294BF53
:10D6400001230023DBB206E0FB687D4A934294BFCE
:10D6500001230023DBB2002B01D00123E7E0FB68AC
:10D66000784AA2FB03239B0CBB607B681B685B684A
:10D6700023F03F017B681B68BA680A435A607B68E5
:10D680001B681B6A23F03F017B685B686A4A934210
:10D6900002D8BB68013309E0BB684FF4967202FB05
:10D6A00003F3694AA2FB03239B0901337A681268DA
:10D6B0000B4313627B681B68DB6923F44F4222F043
:10D6C000FF027B685B685C498B4219D8FB68591E76
:10D6D0007B685B685B00B1FBF3F3591C40F6FC739D
:10D6E0000B40002B0AD0FB68591E7B685B685B000F
:10D6F000B1FBF3F30133C3F30B0351E004234FE019
:10D700007B689B68002B11D1FB68581E7B685968A9
:10D710000B465B000B44B0FBF3F30133C3F30B0385
:10D72000002B0CBF01230023DBB212E0FB68581E64
:10D730007B6859680B469B000B4499000B44B0FB77
:10D74000F3F30133C3F30B03002B0CBF01230023BE
:10D75000DBB2002B01D0012322E07B689B68002B09
:10D760000ED1FB68581E7B6859680B465B000B4462
:10D77000B0FBF3F30133C3F30B0343F400430FE0B7
:10D78000FB68581E7B6859680B469B000B44990048
:10D790000B44B0FBF3F30133C3F30B0343F44043F7
:10D7A000796809681343CB617B681B681B6823F0A9
:10D7B000C0017B68DA697B681B6A1A437B681B6857
:10D7C0000A431A607B681B689B6823F4034323F0B9
:10D7D000FF037A6811697A68D26811437A6812681F
:10D7E0000B4393607B681B68DB6823F0FF017B6859
:10D7F0005A697B689B691A437B681B680A43DA6035
:10D800007B681B681A687B681B6842F001021A601B
:10D810007B6800221A647B68202283F83D207B68A5
:10D8200000221A637B68002283F83E2000231846FA
:10D830001037BD4680BD00BFA08601007F841E005A
:10D84000FF083D0083DE1B43D34D621080B483B0DC
:10D8500000AF786039607B6893F83D30DBB2202BF5
:10D8600029D17B68242283F83D207B681B681A68D5
:10D870007B681B6822F001021A607B681B685A6A89
:10D880007B681B6822F010025A627B681B68596A29
:10D890007B681B683A680A435A627B681B681A688F
:10D8A0007B681B6842F001021A607B68202283F8C3
:10D8B0003D20002300E0022318460C37BD465DF8EA
:10D8C000047B704780B485B000AF78603960002376
:10D8D000FB817B6893F83D30DBB2202B2AD17B683B
:10D8E000242283F83D207B681B681A687B681B68CC
:10D8F00022F001021A607B681B685B6AFB81FB896E
:10D9000023F00F03FB813B689AB2FB891343FB8131
:10D910007B681B68FA895A627B681B681A687B6897
:10D920001B6842F001021A607B68202283F83D20C8
:10D93000002300E0022318461437BD465DF8047B3F
:10D94000704780B582B000AF78607B68002B01D152
:10D9500001237BE07B685B6A002B08D17B685B68F6
:10D96000B3F5827F09D07B680022DA6105E07B682D
:10D9700000221A617B6800225A617B6800229A6249
:10D980007B6893F85130DBB2002B06D17B68002214
:10D9900083F85020786805F0A7F97B68022283F8A5
:10D9A00051207B681B681A687B681B6822F0400264
:10D9B0001A607B685B6803F482727B689B6803F47F
:10D9C00004431A437B68DB6803F400631A437B68F3
:10D9D0001B6903F002031A437B685B6903F00103D0
:10D9E0001A437B689B6903F400731A437B68DB6905
:10D9F00003F038031A437B681B6A03F0800342EA92
:10DA000003017B689B6A03F400527B681B680A432E
:10DA10001A607B689B691B0C03F004017B685B6ADE
:10DA200003F010027B681B680A435A607B681B681E
:10DA3000DA697B681B6822F40062DA617B68002285
:10DA40005A657B68012283F8512000231846083765
:10DA5000BD4680BD80B582B000AF78607B68002B8A
:10DA600001D1012342E07B6893F84130DBB2002B07
:10DA700006D17B68002283F84020786805F066FABA
:10DA80007B68242283F841207B681B68DA687B6806
:10DA90001B6822F40052DA60786800F0C7FE7B68E9
:10DAA0001B681A697B681B6822F490421A617B68C4
:10DAB0001B685A697B681B6822F02A025A617B68DE
:10DAC0001B68DA687B681B6842F40052DA607B6886
:10DAD00000225A647B68202283F841207B68202240
:10DAE00083F842207B6800225A63002318460837D7
